:020000040000fa
:080000000001040000000000f3
:020000040000fa
:1000080090010000900100009001000090010000a4
:100018009001000090010000900100009001000094
:100028009001000090010000900100001c070000f2
:100038009001000090010000900100009001000074
:1000480090010000380700009001000090010000b6
:100058009001000090010000900100009001000054
:100068009001000090010000900100009001000044
:100078009001000090010000900100009001000034
:100088009001000090010000900100009001000024
:100098009001000090010000900100009001000014
:1000a8009001000090010000900100009001000004
:1000b80090010000900100009001000090010000f4
:1000c80090010000900100009001000090010000e4
:1000d80090010000900100009001000090010000d4
:1000e80090010000900100009001000090010000c4
:0800f8009001000090010000de
:020000040000fa
:1001080090010000900100009001000090010000a3
:100118009001000090010000900100009001000093
:100128009001000090010000900100001c070000f1
:100138009001000090010000900100009001000073
:1001480090010000380700009001000090010000b5
:100158009001000090010000900100009001000053
:100168009001000090010000900100009001000043
:100178009001000090010000900100009001000033
:100188009001000090010000900100009001000023
:100198009001000090010000900100009001000013
:1001a8009001000090010000900100009001000003
:1001b80090010000900100009001000090010000f3
:1001c80090010000900100009001000090010000e3
:1001d80090010000900100009001000090010000d3
:1001e80090010000900100009001000090010000c3
:0801f8009001000090010000dd
:020000040000fa
:100200004f8320000eff20000e0188000000000038
:100210000c0007006084200001002000110007008e
:10022000000020000000e000020032000000020098
:10023000000000000a080200000000000040da0090
:100240000000fe004440a900000c20000000e00077
:100250000300320000002000a00188004440a800f4
:100260000000060091018800800078000000eb008b
:1002700015003700e280400032a0b4009101ba00be
:10028000e280400032a0b4009102ba00e280400057
:1002900032a0b4000002eb00472bde00f507b200ed
:1002a000602ce10004003a000059eb008301e900f2
:1002b000fdff3e00040037006128e100010032002c
:1002c0000082eb00040007001101ba000200e00008
:1002d000e8ff3a00000006003159ba008301e90046
:1002e0000c0032002159ba008301e90008003200f5
:1002f0000400e00003003a00e280400032a0b400b5
:10030000f5ff370011d9ba008301e900faff3a007e
:100310008100e800e180400032a0b4000000060047
:100320000040da000000fe008460a9006701600060
:100330004c11dd00a3048000f1ff280081806100e2
:1003400082807000a1048800680060006104800061
:100350000130a10080807000610488000000060068
:100360000021ef0011088800200888000000060026
:10037000711080000110b20010c0b3000100320003
:100380000040eb00000006008520a9008540a90080
:10039000670160004411dd00c3048000f1f82f0004
:1003a0008180610082807000c104880000017800b3
:1003b0000207b2004411dd00c3048000f18f2f005a
:1003c0008180610082807000c10488006801600043
:1003d0004311de00610161004911dd00610480000c
:1003e0000190a10082807000610488000008b200c2
:1003f0004700de00610060004a00dd00610480000b
:1004000001a0a10080807000610488000000060047
:10041000a21088006010880071108800000006009b
:1004200061108000e6806000e68f5000010032001d
:10043000f00fb2008010880000000600839f680063
:100440000100e00002003d0060001000e0801800a4
:100450000300e00002003d0060011100e08119008e
:10046000140007004f00e00002003b006000100095
:10047000e080180000000600811f78000100e00005
:1004800002003d0060001000e08018000300e00062
:1004900002003d0060011100e08119001500070015
:1004a0004f00e00002003b0060001000e0801800f8
:1004b000000006006022b800060220000000d00004
:1004c0008180d2000482d2008582d2000000a00088
:1004d0000202520083825a000300310002024200ed
:1004e00083824a000000a1000603e900f3ff3a00fe
:1004f00000000600efff07000400be000000060039
:020000040000fa
:10050000000000000c0000001900000025000000a1
:10051000310000003d0000004900000054000000d0
:10052000600000006b000000760000008100000009
:100530008b000000950000009f000000a800000054
:10054000b1000000b9000000c1000000c9000000b7
:10055000d0000000d6000000dc000000e200000037
:10056000e7000000eb000000ef000000f3000000d7
:10057000f5000000f7000000f9000000fa0000009c
:10058000000000000c000000190000002500000021
:10059000310000003d000000490000005400000050
:1005a000600000006b000000760000008100000089
:1005b0008b000000950000009f000000a8000000d4
:1005c000b1000000b9000000c1000000c900000037
:1005d000d0000000d6000000dc000000e2000000b7
:1005e000e7000000eb000000ef000000f300000057
:1005f000f5000000f7000000f9000000fa0000001c
:10060000000000000c0000001900000025000000a0
:10061000310000003d0000004900000054000000cf
:10062000600000006b000000760000008100000008
:100630008b000000950000009f000000a800000053
:10064000b1000000b9000000c1000000c9000000b6
:10065000d0000000d6000000dc000000e200000036
:10066000e7000000eb000000ef000000f3000000d6
:10067000f5000000f7000000f9000000fa0000009b
:020000040000fa
:100680000e00fa00600798006e009000a000900035
:100690006e00900040009000808f500009003a00ea
:1006a0006e009000f000900060009000e00f50009d
:1006b000e08f580003003a006000b80060418800f5
:1006c000714188006e00900020099000b0099000f0
:1006d000028fbe006e0090002000900001002000fc
:1006e00020079800310798002e009000be0090006f
:1006f000000140008181480060418000714180001c
:1007000002024000838248001e01be004218dd0044
:10071000ce10de00810070004210dd00610040005c
:10072000e08048000001be000400be0043ff070057
:100730002e019000be019000000051008180590000
:1007400040079800510798002e009000be009000ce
:1007500000014000818148006041800071418000bb
:1007600002024000838248001e01be004218dd00e4
:10077000ce10de00810070004210dd0061004000fc
:10078000e08048000001be000400be003aff070000
:1007900060418800714188001e00be00e00f5000db
:1007a000e08f5800040034001000200001002000f9
:1007b0001e0f40005e9748001e00be00e00f500074
:1007c000e08f580004003d000081eb008081eb00c9
:1007d0001e0f41005e9749001e00be00e00f500052
:1007e000e08f5800080034006e0090005000900028
:1007f0006101b8004e009000de009000800f5100b3
:10080000818f59000c003c001e00be00e00f50001c
:10081000e08f580011003d006e00900050009000e5
:100820006101b8004e009000de009000800f510082
:10083000818f590009003d006e009000d0009000ab
:100840006e009000210098006e0190006000b800da
:10085000200998003109980007003700ce00900069
:100860006e009000210098006e0090001e01be00f6
:1008700022089800330898000080fa000000060063
:100880000400fa00100798001e0090001040780045
:10089000e04f5000650032001e00900000099000fb
:1008a000900990001e0090002000900001002000a0
:1008b000800f5100818f5900620039001e009000a6
:1008c00060019000f00190001e0090003000900048
:1008d000cf80de00800f5100818f59000400390065
:1008e0001e00900030009000e10f400048003a00e8
:1008f00010c0b30030e8b7000e00e8001c0107008c
:10090000004f78001e00900010409000e14f500012
:1009100009003a001e009000204090000080fb007b
:10092000010220000088de00804078001e40900018
:1009300000c04000104798001e009000104090003a
:10094000e04f50000a003a001e40900080407800be
:100950001e009000204090000080fb00020220005a
:100960000090de000040780000c050001047980062
:100970001e409000ff4f5000030034001e4fe8005f
:100980000040eb00104798001e409000e04f5000e0
:100990000a003d001e4fe9001e009000204090001c
:1009a0000080fb00010220000088de00004078008b
:1009b00001c2b30000c05000104798001e409000d4
:1009c000804078001e407800720007001e009000f2
:1009d000b008900020089000e00f5000e08f580011
:1009e000020032001e00900025ff07001e0090004c
:1009f000f00090006000900061004000e08048003e
:100a00001e019000600198007101980002003700fb
:100a100020c0b30030e8b7001e0190006000b800ad
:100a20000009980011099800060037000000eb004b
:100a30004c0007000000eb00500007000040eb00f6
:100a400030e8b70030c8bf000080fa0000000600a0
:100a50000000fa00a922a800a942a800a962a800e3
:100a6000a982a800d202a900d222a900c722a90007
:100a7000c742a900c762a900c782a900cb22a9006a
:100a8000cb42a900cb62a900cb82a9000080fa006a
:100a9000000006000000fa00301f200060088800f7
:100aa0000000eb00100c880040012000000c8800c2
:100ab00060ff2d00200c880011e1a8000000eb0071
:100ac000000c88000080fa00000006000000fa0018
:100ad000301f20007008880040012000300c880082
:100ae0000000eb00400c8800e0ff2d00500c880057
:100af00013e1a8000000eb00300c88000080fa0031
:100b0000000006000200fa00004f78001e40780046
:100b1000e04f500003003200cb22a800cb42a900d6
:100b200002003700cb22a900cb42a8000080fa00c7
:100b3000000006000200fa00004f78001e40780016
:100b4000e04f500003003200cb62a800cb82a90026
:100b500002003700cb62a900cb82a8000080fa0017
:100b6000000006000200fa00000f78001e00780066
:100b7000000c88000080fa00000006000200fa0065
:100b8000000f78001e007800300c88000080fa000a
:100b9000000006000200fa00004f7800114798009c
:100ba0001e407800e34f5000020034000040eb008c
:100bb000004f78001e407800e04f500002003d00da
:100bc00030c0b300004f78001e00fb00cf80de0075
:100bd0003200200003002000820f5000838f580055
:100be0005d003e0000600100030037001800370080
:100bf0002d003700420037001e4090000080fb00af
:100c00007f00100080004000002c28000080400081
:100c100010007800a00fb000d2ff070010c0b30092
:100c2000b8ff07001e4090000080fb0080004000dd
:100c3000002c28000080400010007800a00fb000b9
:100c4000ceff070010c0b300baff07004200370014
:100c50001e4090000080fb0080004000002c280017
:100c60000080400010007800a00fb000bdff07001a
:100c70000040eb00a3ff07001e4090000080fb0037
:100c80007f00100080004000002c28000080400001
:100c900010007800a00fb000b8ff070010c0b3002c
:100ca000a4ff07002c0037001e4090000080fb00ce
:100cb0007f00100080004000002c280000804000d1
:100cc00010007800a00fb000a6ff07000040eb0066
:100cd0008cff07001e4090000080fb008000400059
:100ce000002c28000080400010007800a00fb00009
:100cf000a2ff07000040eb008eff07001600370040
:100d00001e4090000080fb0080004000002c280066
:100d10000080400010007800a00fb00091ff070095
:100d200010c0b30077ff07001e4090000080fb005a
:100d30007f00100080004000002c28000080400050
:100d400010007800a00fb0008cff07000040eb00ff
:100d500078ff0700000000001e40780032e8b7006e
:100d60001e40900033e8b7000080fa000000060043
:100d70000200fa00000f780033c8bf009e00780020
:100d80008048780032c8bf000080fa0000000600ea
:100d90000000fa002eff07003eff07004bff070090
:100da00090ff2f0060fd0700810c200090f82d00bf
:100db0006bfd0700e0f22f0073fd0700a202200088
:100dc000f17f2f0000fa2f0091fd07000080fa004c
:100dd000000006000200fa00004f7800114798005a
:100de00000c8bf008080fb001e00fb00808f500009
:100df0000f003a001e4090000080fb0088fd0700b5
:100e0000000000005afd0700e04f5000fdff3200d7
:100e1000a000200082fd07000000000054fd070034
:100e2000e04f5000fdff32000040eb0000e8b7004b
:100e30000080fa0000000600809fbe000000fa005b
:100e40000000eb00000888008460a900904080004a
:100e5000a140800061004000e08048009040880090
:100e6000a14088000080fa004f00be00004006004c
:100e7000809fbe00821f78000000fa008520a90034
:100e8000901080000040780000e8b7000000eb0000
:100e9000d04088000d003700d04080006c01100069
:100ea000d0408000eb001000e08120000080400076
:100eb00010407800e18120008100410080487800e6
:100ec000d04080000000e800d0408800d040800082
:100ed000eb0f5000f0ff360000c8bf001ee8b7005f
:100ee000e18120009140780030c5b30080cf5000f0
:100ef00044003a00a18220009140780030c5b30040
:100f000080cf50003f003a000040eb0002e8b700fd
:100f100028c8bf0004e8b70027c8bf0003e8b7002f
:100f200026c8bf000080fb00c800dd0025c8bf0048
:100f30000080fb00008040006040880024c8bf00a3
:100f40000080fb00c800dd0023c8bf000080fb005c
:100f5000008040005040880022c8bf000080fb0095
:100f6000c800dd0021c8bf000080fb0000804000f9
:100f70004040880020c8bf000080fb00c800dd00a2
:100f80001fc8bf000080fb0000804000cf80de0053
:100f9000b0408800c1408800b0408000c14080005f
:100fa000e00f5000e08f58000300320050408000f6
:100fb00030408800020037006040800030408800e8
:100fc00029c8bf00e04f5000080032006000b800a0
:100fd00070408800814088006000b8009040880020
:100fe000a140880010c0b30002e8b7000040eb0049
:100ff00028e8b70028c8bf001ee8b7000040eb0093
:1010000000e8b7000080fa004f0178004f00be00f2
:10101000004006000000fa005dff07000000eb0042
:10102000d04088000d0037000000eb00e040880051
:1010300003003700e04080000000e800e040880046
:10104000e140800070bb2000808f5000f9ff360027
:10105000d04080000000e800d0408800d1408000ef
:10106000b02b2000808f5000efff36002080200042
:1010700003fe070001e8b70001c8bf008040780008
:0c108000d0c4b30053ff0700f8ff370096
:020000040000fa
:10108c002c08000006000000020000000000000018
:10109c000000000032080000020000000000000008
:1010ac001a080000120000000000000000080000f8
:1010bc001a00000002000000000000000100000007
:1010cc000000000000000000000000000000000014
:1010dc000000000000000000000000000000000004
:020000040000fa
:0200000401f009
:04000000e6bf000057
:020000040000fa
:0200000401f009
:04000400ff7f00007a
:020000040000fa
:0200000401f009
:04001400ffff0000ea
:00000001FF
